{
  "_format": "hh-sol-artifact-1",
  "contractName": "MyEpicNFT",
  "sourceName": "contracts/MyEpicNFT.sol",
  "abi": [
    {
      "inputs": [],
      "stateMutability": "nonpayable",
      "type": "constructor"
    },
    {
      "anonymous": false,
      "inputs": [
        {
          "indexed": true,
          "internalType": "address",
          "name": "owner",
          "type": "address"
        },
        {
          "indexed": true,
          "internalType": "address",
          "name": "approved",
          "type": "address"
        },
        {
          "indexed": true,
          "internalType": "uint256",
          "name": "tokenId",
          "type": "uint256"
        }
      ],
      "name": "Approval",
      "type": "event"
    },
    {
      "anonymous": false,
      "inputs": [
        {
          "indexed": true,
          "internalType": "address",
          "name": "owner",
          "type": "address"
        },
        {
          "indexed": true,
          "internalType": "address",
          "name": "operator",
          "type": "address"
        },
        {
          "indexed": false,
          "internalType": "bool",
          "name": "approved",
          "type": "bool"
        }
      ],
      "name": "ApprovalForAll",
      "type": "event"
    },
    {
      "anonymous": false,
      "inputs": [
        {
          "indexed": false,
          "internalType": "address",
          "name": "sender",
          "type": "address"
        },
        {
          "indexed": false,
          "internalType": "uint256",
          "name": "tokenId",
          "type": "uint256"
        }
      ],
      "name": "NewEpicNFTMinted",
      "type": "event"
    },
    {
      "anonymous": false,
      "inputs": [
        {
          "indexed": true,
          "internalType": "address",
          "name": "from",
          "type": "address"
        },
        {
          "indexed": true,
          "internalType": "address",
          "name": "to",
          "type": "address"
        },
        {
          "indexed": true,
          "internalType": "uint256",
          "name": "tokenId",
          "type": "uint256"
        }
      ],
      "name": "Transfer",
      "type": "event"
    },
    {
      "inputs": [
        {
          "internalType": "address",
          "name": "to",
          "type": "address"
        },
        {
          "internalType": "uint256",
          "name": "tokenId",
          "type": "uint256"
        }
      ],
      "name": "approve",
      "outputs": [],
      "stateMutability": "nonpayable",
      "type": "function"
    },
    {
      "inputs": [
        {
          "internalType": "address",
          "name": "owner",
          "type": "address"
        }
      ],
      "name": "balanceOf",
      "outputs": [
        {
          "internalType": "uint256",
          "name": "",
          "type": "uint256"
        }
      ],
      "stateMutability": "view",
      "type": "function"
    },
    {
      "inputs": [
        {
          "internalType": "uint256",
          "name": "tokenId",
          "type": "uint256"
        }
      ],
      "name": "getApproved",
      "outputs": [
        {
          "internalType": "address",
          "name": "",
          "type": "address"
        }
      ],
      "stateMutability": "view",
      "type": "function"
    },
    {
      "inputs": [],
      "name": "getTotalNFTsMintedSoFar",
      "outputs": [
        {
          "internalType": "uint256",
          "name": "",
          "type": "uint256"
        }
      ],
      "stateMutability": "view",
      "type": "function"
    },
    {
      "inputs": [
        {
          "internalType": "address",
          "name": "owner",
          "type": "address"
        },
        {
          "internalType": "address",
          "name": "operator",
          "type": "address"
        }
      ],
      "name": "isApprovedForAll",
      "outputs": [
        {
          "internalType": "bool",
          "name": "",
          "type": "bool"
        }
      ],
      "stateMutability": "view",
      "type": "function"
    },
    {
      "inputs": [],
      "name": "makeAnEpicNFT",
      "outputs": [],
      "stateMutability": "nonpayable",
      "type": "function"
    },
    {
      "inputs": [],
      "name": "name",
      "outputs": [
        {
          "internalType": "string",
          "name": "",
          "type": "string"
        }
      ],
      "stateMutability": "view",
      "type": "function"
    },
    {
      "inputs": [
        {
          "internalType": "uint256",
          "name": "tokenId",
          "type": "uint256"
        }
      ],
      "name": "ownerOf",
      "outputs": [
        {
          "internalType": "address",
          "name": "",
          "type": "address"
        }
      ],
      "stateMutability": "view",
      "type": "function"
    },
    {
      "inputs": [
        {
          "internalType": "uint256",
          "name": "tokenID",
          "type": "uint256"
        }
      ],
      "name": "pickRandomBackgroundColor",
      "outputs": [
        {
          "internalType": "string",
          "name": "",
          "type": "string"
        }
      ],
      "stateMutability": "view",
      "type": "function"
    },
    {
      "inputs": [
        {
          "internalType": "uint256",
          "name": "tokenId",
          "type": "uint256"
        }
      ],
      "name": "pickRandomClass",
      "outputs": [
        {
          "internalType": "string",
          "name": "",
          "type": "string"
        }
      ],
      "stateMutability": "view",
      "type": "function"
    },
    {
      "inputs": [
        {
          "internalType": "uint256",
          "name": "tokenID",
          "type": "uint256"
        }
      ],
      "name": "pickRandomFillColor",
      "outputs": [
        {
          "internalType": "string",
          "name": "",
          "type": "string"
        }
      ],
      "stateMutability": "view",
      "type": "function"
    },
    {
      "inputs": [
        {
          "internalType": "uint256",
          "name": "tokenId",
          "type": "uint256"
        }
      ],
      "name": "pickRandomFirstName",
      "outputs": [
        {
          "internalType": "string",
          "name": "",
          "type": "string"
        }
      ],
      "stateMutability": "view",
      "type": "function"
    },
    {
      "inputs": [
        {
          "internalType": "uint256",
          "name": "tokenId",
          "type": "uint256"
        }
      ],
      "name": "pickRandomLastName",
      "outputs": [
        {
          "internalType": "string",
          "name": "",
          "type": "string"
        }
      ],
      "stateMutability": "view",
      "type": "function"
    },
    {
      "inputs": [
        {
          "internalType": "address",
          "name": "from",
          "type": "address"
        },
        {
          "internalType": "address",
          "name": "to",
          "type": "address"
        },
        {
          "internalType": "uint256",
          "name": "tokenId",
          "type": "uint256"
        }
      ],
      "name": "safeTransferFrom",
      "outputs": [],
      "stateMutability": "nonpayable",
      "type": "function"
    },
    {
      "inputs": [
        {
          "internalType": "address",
          "name": "from",
          "type": "address"
        },
        {
          "internalType": "address",
          "name": "to",
          "type": "address"
        },
        {
          "internalType": "uint256",
          "name": "tokenId",
          "type": "uint256"
        },
        {
          "internalType": "bytes",
          "name": "_data",
          "type": "bytes"
        }
      ],
      "name": "safeTransferFrom",
      "outputs": [],
      "stateMutability": "nonpayable",
      "type": "function"
    },
    {
      "inputs": [
        {
          "internalType": "address",
          "name": "operator",
          "type": "address"
        },
        {
          "internalType": "bool",
          "name": "approved",
          "type": "bool"
        }
      ],
      "name": "setApprovalForAll",
      "outputs": [],
      "stateMutability": "nonpayable",
      "type": "function"
    },
    {
      "inputs": [
        {
          "internalType": "bytes4",
          "name": "interfaceId",
          "type": "bytes4"
        }
      ],
      "name": "supportsInterface",
      "outputs": [
        {
          "internalType": "bool",
          "name": "",
          "type": "bool"
        }
      ],
      "stateMutability": "view",
      "type": "function"
    },
    {
      "inputs": [],
      "name": "symbol",
      "outputs": [
        {
          "internalType": "string",
          "name": "",
          "type": "string"
        }
      ],
      "stateMutability": "view",
      "type": "function"
    },
    {
      "inputs": [
        {
          "internalType": "uint256",
          "name": "tokenId",
          "type": "uint256"
        }
      ],
      "name": "tokenURI",
      "outputs": [
        {
          "internalType": "string",
          "name": "",
          "type": "string"
        }
      ],
      "stateMutability": "view",
      "type": "function"
    },
    {
      "inputs": [
        {
          "internalType": "address",
          "name": "from",
          "type": "address"
        },
        {
          "internalType": "address",
          "name": "to",
          "type": "address"
        },
        {
          "internalType": "uint256",
          "name": "tokenId",
          "type": "uint256"
        }
      ],
      "name": "transferFrom",
      "outputs": [],
      "stateMutability": "nonpayable",
      "type": "function"
    }
  ],
  "bytecode": "0x608060405260405180610100016040528060ce8152602001620049b060ce91396008908051906020019062000036929190620007fe565b506040518060400160405280601381526020017f273e3c2f726563743e3c672066696c6c3d2723000000000000000000000000008152506009908051906020019062000084929190620007fe565b50604051806101a00160405280610161815260200162004a7e6101619139600a9080519060200190620000b9929190620007fe565b506040518061016001604052806040518060400160405280600781526020017f456477617264200000000000000000000000000000000000000000000000000081525081526020016040518060400160405280600781526020017f416c66726564200000000000000000000000000000000000000000000000000081525081526020016040518060400160405280600981526020017f436f7264656c696120000000000000000000000000000000000000000000000081525081526020016040518060400160405280600e81526020017f4c6f72656c656920556c7269632000000000000000000000000000000000000081525081526020016040518060400160405280600981526020017f416c61737461697220000000000000000000000000000000000000000000000081525081526020016040518060400160405280600881526020017f417474696375732000000000000000000000000000000000000000000000000081525081526020016040518060400160405280601b81526020017f4172796120436861726c6f74746520436f6e7374616e74696e6520000000000081525081526020016040518060400160405280600881526020017f4d6178696d75732000000000000000000000000000000000000000000000000081525081526020016040518060400160405280600681526020017f466564726120000000000000000000000000000000000000000000000000000081525081526020016040518060400160405280600681526020017f436173636120000000000000000000000000000000000000000000000000000081525081526020016040518060400160405280600581526020017f4e616d6920000000000000000000000000000000000000000000000000000000815250815250600b90600b6200035f9291906200088f565b506040518061010001604052806040518060400160405280600681526020017f4d616e6e6976000000000000000000000000000000000000000000000000000081525081526020016040518060400160405280600881526020017f53796c657374696100000000000000000000000000000000000000000000000081525081526020016040518060400160405280600981526020017f44757368617369657a000000000000000000000000000000000000000000000081525081526020016040518060400160405280600381526020017f596f73000000000000000000000000000000000000000000000000000000000081525081526020016040518060400160405280600581526020017f5975656c6100000000000000000000000000000000000000000000000000000081525081526020016040518060400160405280600481526020017f416d65730000000000000000000000000000000000000000000000000000000081525081526020016040518060400160405280600581526020017f446f6d6f7300000000000000000000000000000000000000000000000000000081525081526020016040518060400160405280600a81526020017f55726b656e7376616c6c00000000000000000000000000000000000000000000815250815250600c90600862000554929190620008f6565b506040518061010001604052806040518060400160405280600681526020017f2c2042617264000000000000000000000000000000000000000000000000000081525081526020016040518060400160405280600881526020017f2c20436c6572696300000000000000000000000000000000000000000000000081525081526020016040518060400160405280600981526020017f2c2046696768746572000000000000000000000000000000000000000000000081525081526020016040518060400160405280600681526020017f2c204d6f6e6b000000000000000000000000000000000000000000000000000081525081526020016040518060400160405280600981526020017f2c2050616c6164696e000000000000000000000000000000000000000000000081525081526020016040518060400160405280600781526020017f2c20526f6775650000000000000000000000000000000000000000000000000081525081526020016040518060400160405280600a81526020017f2c20536f7263657265720000000000000000000000000000000000000000000081525081526020016040518060400160405280600881526020017f2c2057697a617264000000000000000000000000000000000000000000000000815250815250600d90600862000749929190620008f6565b503480156200075757600080fd5b506040518060400160405280601081526020017f416476656e7475726572204e616d6573000000000000000000000000000000008152506040518060400160405280600381526020017f41444300000000000000000000000000000000000000000000000000000000008152508160009080519060200190620007dc929190620007fe565b508060019080519060200190620007f5929190620007fe565b50505062000a4f565b8280546200080c9062000a19565b90600052602060002090601f0160209004810192826200083057600085556200087c565b82601f106200084b57805160ff19168380011785556200087c565b828001600101855582156200087c579182015b828111156200087b5782518255916020019190600101906200085e565b5b5090506200088b91906200095d565b5090565b828054828255906000526020600020908101928215620008e3579160200282015b82811115620008e2578251829080519060200190620008d1929190620007fe565b5091602001919060010190620008b0565b5b509050620008f291906200097c565b5090565b8280548282559060005260206000209081019282156200094a579160200282015b828111156200094957825182908051906020019062000938929190620007fe565b509160200191906001019062000917565b5b5090506200095991906200097c565b5090565b5b80821115620009785760008160009055506001016200095e565b5090565b5b80821115620009a05760008181620009969190620009a4565b506001016200097d565b5090565b508054620009b29062000a19565b6000825580601f10620009c65750620009e7565b601f016020900490600052602060002090810190620009e691906200095d565b5b50565b7f4e487b7100000000000000000000000000000000000000000000000000000000600052602260045260246000fd5b6000600282049050600182168062000a3257607f821691505b6020821081141562000a495762000a48620009ea565b5b50919050565b613f518062000a5f6000396000f3fe608060405234801561001057600080fd5b506004361061012c5760003560e01c806370a08231116100ad578063c87b56dd11610071578063c87b56dd14610367578063de9d132f14610397578063e71ed91d146103a1578063e985e9c5146103d1578063f9fec0ee146104015761012c565b806370a08231146102b157806376f5efd1146102e157806395d89b4114610311578063a22cb4651461032f578063b88d4fde1461034b5761012c565b8063095ea7b3116100f4578063095ea7b3146101fd57806323b872dd1461021957806342842e0e1461023557806351c4d62a146102515780636352211e146102815761012c565b806301ffc9a714610131578063060475901461016157806306fdde031461017f57806307b0e3ba1461019d578063081812fc146101cd575b600080fd5b61014b60048036038101906101469190612620565b610431565b6040516101589190612668565b60405180910390f35b610169610513565b604051610176919061269c565b60405180910390f35b610187610524565b6040516101949190612750565b60405180910390f35b6101b760048036038101906101b2919061279e565b6105b6565b6040516101c49190612750565b60405180910390f35b6101e760048036038101906101e2919061279e565b6106ae565b6040516101f4919061280c565b60405180910390f35b61021760048036038101906102129190612853565b610733565b005b610233600480360381019061022e9190612893565b61084b565b005b61024f600480360381019061024a9190612893565b6108ab565b005b61026b6004803603810190610266919061279e565b6108cb565b6040516102789190612750565b60405180910390f35b61029b6004803603810190610296919061279e565b6109c3565b6040516102a8919061280c565b60405180910390f35b6102cb60048036038101906102c691906128e6565b610a75565b6040516102d8919061269c565b60405180910390f35b6102fb60048036038101906102f6919061279e565b610b2d565b6040516103089190612750565b60405180910390f35b610319610bc3565b6040516103269190612750565b60405180910390f35b6103496004803603810190610344919061293f565b610c55565b005b61036560048036038101906103609190612ab4565b610dd6565b005b610381600480360381019061037c919061279e565b610e38565b60405161038e9190612750565b60405180910390f35b61039f610f8a565b005b6103bb60048036038101906103b6919061279e565b611260565b6040516103c89190612750565b60405180910390f35b6103eb60048036038101906103e69190612b37565b6112f6565b6040516103f89190612668565b60405180910390f35b61041b6004803603810190610416919061279e565b61138a565b6040516104289190612750565b60405180910390f35b60007f80ac58cd000000000000000000000000000000000000000000000000000000007bffffffffffffffffffffffffffffffffffffffffffffffffffffffff1916827bffffffffffffffffffffffffffffffffffffffffffffffffffffffff191614806104fc57507f5b5e139f000000000000000000000000000000000000000000000000000000007bffffffffffffffffffffffffffffffffffffffffffffffffffffffff1916827bffffffffffffffffffffffffffffffffffffffffffffffffffffffff1916145b8061050c575061050b82611482565b5b9050919050565b600061051f60076114ec565b905090565b60606000805461053390612ba6565b80601f016020809104026020016040519081016040528092919081815260200182805461055f90612ba6565b80156105ac5780601f10610581576101008083540402835291602001916105ac565b820191906000526020600020905b81548152906001019060200180831161058f57829003601f168201915b5050505050905090565b606060006105ea6105c6846114fa565b6040516020016105d69190612c60565b60405160208183030381529060405261165b565b9050600b80549050816105fd9190612cb1565b9050600b818154811061061357610612612ce2565b5b90600052602060002001805461062890612ba6565b80601f016020809104026020016040519081016040528092919081815260200182805461065490612ba6565b80156106a15780601f10610676576101008083540402835291602001916106a1565b820191906000526020600020905b81548152906001019060200180831161068457829003601f168201915b5050505050915050919050565b60006106b98261168e565b6106f8576040517f08c379a00000000000000000000000000000000000000000000000000000000081526004016106ef90612d83565b60405180910390fd5b6004600083815260200190815260200160002060009054906101000a900473ffffffffffffffffffffffffffffffffffffffff169050919050565b600061073e826109c3565b90508073ffffffffffffffffffffffffffffffffffffffff168373ffffffffffffffffffffffffffffffffffffffff1614156107af576040517f08c379a00000000000000000000000000000000000000000000000000000000081526004016107a690612e15565b60405180910390fd5b8073ffffffffffffffffffffffffffffffffffffffff166107ce6116fa565b73ffffffffffffffffffffffffffffffffffffffff1614806107fd57506107fc816107f76116fa565b6112f6565b5b61083c576040517f08c379a000000000000000000000000000000000000000000000000000000000815260040161083390612ea7565b60405180910390fd5b6108468383611702565b505050565b61085c6108566116fa565b826117bb565b61089b576040517f08c379a000000000000000000000000000000000000000000000000000000000815260040161089290612f39565b60405180910390fd5b6108a6838383611899565b505050565b6108c683838360405180602001604052806000815250610dd6565b505050565b606060006108ff6108db846114fa565b6040516020016108eb9190612fa5565b60405160208183030381529060405261165b565b9050600c80549050816109129190612cb1565b9050600c818154811061092857610927612ce2565b5b90600052602060002001805461093d90612ba6565b80601f016020809104026020016040519081016040528092919081815260200182805461096990612ba6565b80156109b65780601f1061098b576101008083540402835291602001916109b6565b820191906000526020600020905b81548152906001019060200180831161099957829003601f168201915b5050505050915050919050565b6000806002600084815260200190815260200160002060009054906101000a900473ffffffffffffffffffffffffffffffffffffffff169050600073ffffffffffffffffffffffffffffffffffffffff168173ffffffffffffffffffffffffffffffffffffffff161415610a6c576040517f08c379a0000000000000000000000000000000000000000000000000000000008152600401610a6390613039565b60405180910390fd5b80915050919050565b60008073ffffffffffffffffffffffffffffffffffffffff168273ffffffffffffffffffffffffffffffffffffffff161415610ae6576040517f08c379a0000000000000000000000000000000000000000000000000000000008152600401610add906130cb565b60405180910390fd5b600360008373ffffffffffffffffffffffffffffffffffffffff1673ffffffffffffffffffffffffffffffffffffffff168152602001908152602001600020549050919050565b60606000610b61610b3d846114fa565b604051602001610b4d9190613137565b60405160208183030381529060405261165b565b9050620186a0620f423f82610b769190612cb1565b610b809190613188565b90505b620f423f811115610bb257620186a0620f423f82610ba19190612cb1565b610bab9190613188565b9050610b83565b610bbb81611af5565b915050919050565b606060018054610bd290612ba6565b80601f0160208091040260200160405190810160405280929190818152602001828054610bfe90612ba6565b8015610c4b5780601f10610c2057610100808354040283529160200191610c4b565b820191906000526020600020905b815481529060010190602001808311610c2e57829003601f168201915b5050505050905090565b610c5d6116fa565b73ffffffffffffffffffffffffffffffffffffffff168273ffffffffffffffffffffffffffffffffffffffff161415610ccb576040517f08c379a0000000000000000000000000000000000000000000000000000000008152600401610cc29061322a565b60405180910390fd5b8060056000610cd86116fa565b73ffffffffffffffffffffffffffffffffffffffff1673ffffffffffffffffffffffffffffffffffffffff16815260200190815260200160002060008473ffffffffffffffffffffffffffffffffffffffff1673ffffffffffffffffffffffffffffffffffffffff16815260200190815260200160002060006101000a81548160ff0219169083151502179055508173ffffffffffffffffffffffffffffffffffffffff16610d856116fa565b73ffffffffffffffffffffffffffffffffffffffff167f17307eab39ab6107e8899845ad3d59bd9653f200f220920489ca2b5937696c3183604051610dca9190612668565b60405180910390a35050565b610de7610de16116fa565b836117bb565b610e26576040517f08c379a0000000000000000000000000000000000000000000000000000000008152600401610e1d90612f39565b60405180910390fd5b610e3284848484611c7e565b50505050565b6060610e438261168e565b610e82576040517f08c379a0000000000000000000000000000000000000000000000000000000008152600401610e79906132bc565b60405180910390fd5b6000600660008481526020019081526020016000208054610ea290612ba6565b80601f0160208091040260200160405190810160405280929190818152602001828054610ece90612ba6565b8015610f1b5780601f10610ef057610100808354040283529160200191610f1b565b820191906000526020600020905b815481529060010190602001808311610efe57829003601f168201915b505050505090506000610f2c611cda565b9050600081511415610f42578192505050610f85565b600082511115610f77578082604051602001610f5f9291906132dc565b60405160208183030381529060405292505050610f85565b610f8084611cf1565b925050505b919050565b6000610f9660076114ec565b90506101a48110610fdc576040517f08c379a0000000000000000000000000000000000000000000000000000000008152600401610fd390613372565b60405180910390fd5b6000610fe782611260565b90506000610ff483610b2d565b90506000611001846105b6565b9050600061100e856108cb565b9050600061101b8661138a565b9050600083838360405160200161103493929190613392565b60405160208183030381529060405290506000600887600988600a86604051602001611065969594939291906134a3565b60405160208183030381529060405290506110b46040518060400160405280601581526020017f0a2d2d2d2d2d2d2d2d2d2d2d2d2d2d2d2d2d2d2d2d0000000000000000000000815250611d98565b6110bd81611d98565b6110fb6040518060400160405280601581526020017f2d2d2d2d2d2d2d2d2d2d2d2d2d2d2d2d2d2d2d2d0a0000000000000000000000815250611d98565b600061112f8361110a84611e31565b60405160200161111b929190613636565b604051602081830303815290604052611e31565b905060008160405160200161114491906136c7565b60405160208183030381529060405290506111936040518060400160405280601581526020017f0a2d2d2d2d2d2d2d2d2d2d2d2d2d2d2d2d2d2d2d2d0000000000000000000000815250611d98565b61119c81611d98565b6111da6040518060400160405280601581526020017f2d2d2d2d2d2d2d2d2d2d2d2d2d2d2d2d2d2d2d2d0a0000000000000000000000815250611d98565b6111e4338b611fc9565b6111ee8a82611fe7565b6111f8600761205b565b61121b604051806060016040528060258152602001613eb7602591398b33612071565b7febb98688741ffa4c7589bf325de30cf7becb63de567842e1ccdb6cb949fdc82c338b60405161124c9291906136e9565b60405180910390a150505050505050505050565b60606000611294611270846114fa565b604051602001611280919061375e565b60405160208183030381529060405261165b565b9050620186a0620f423f826112a99190612cb1565b6112b39190613188565b90505b620f423f8111156112e557620186a0620f423f826112d49190612cb1565b6112de9190613188565b90506112b6565b6112ee81611af5565b915050919050565b6000600560008473ffffffffffffffffffffffffffffffffffffffff1673ffffffffffffffffffffffffffffffffffffffff16815260200190815260200160002060008373ffffffffffffffffffffffffffffffffffffffff1673ffffffffffffffffffffffffffffffffffffffff16815260200190815260200160002060009054906101000a900460ff16905092915050565b606060006113be61139a846114fa565b6040516020016113aa91906137cc565b60405160208183030381529060405261165b565b9050600d80549050816113d19190612cb1565b9050600d81815481106113e7576113e6612ce2565b5b9060005260206000200180546113fc90612ba6565b80601f016020809104026020016040519081016040528092919081815260200182805461142890612ba6565b80156114755780601f1061144a57610100808354040283529160200191611475565b820191906000526020600020905b81548152906001019060200180831161145857829003601f168201915b5050505050915050919050565b60007f01ffc9a7000000000000000000000000000000000000000000000000000000007bffffffffffffffffffffffffffffffffffffffffffffffffffffffff1916827bffffffffffffffffffffffffffffffffffffffffffffffffffffffff1916149050919050565b600081600001549050919050565b60606000821415611542576040518060400160405280600181526020017f30000000000000000000000000000000000000000000000000000000000000008152509050611656565b600082905060005b6000821461157457808061155d906137ee565b915050600a8261156d9190613837565b915061154a565b60008167ffffffffffffffff8111156115905761158f612989565b5b6040519080825280601f01601f1916602001820160405280156115c25781602001600182028036833780820191505090505b5090505b6000851461164f576001826115db9190613868565b9150600a856115ea9190612cb1565b60306115f69190613188565b60f81b81838151811061160c5761160b612ce2565b5b60200101907effffffffffffffffffffffffffffffffffffffffffffffffffffffffffffff1916908160001a905350600a856116489190613837565b94506115c6565b8093505050505b919050565b60008160405160200161166e919061389c565b6040516020818303038152906040528051906020012060001c9050919050565b60008073ffffffffffffffffffffffffffffffffffffffff166002600084815260200190815260200160002060009054906101000a900473ffffffffffffffffffffffffffffffffffffffff1673ffffffffffffffffffffffffffffffffffffffff1614159050919050565b600033905090565b816004600083815260200190815260200160002060006101000a81548173ffffffffffffffffffffffffffffffffffffffff021916908373ffffffffffffffffffffffffffffffffffffffff160217905550808273ffffffffffffffffffffffffffffffffffffffff16611775836109c3565b73ffffffffffffffffffffffffffffffffffffffff167f8c5be1e5ebec7d5bd14f71427d1e84f3dd0314c0f7b2291e5b200ac8c7c3b92560405160405180910390a45050565b60006117c68261168e565b611805576040517f08c379a00000000000000000000000000000000000000000000000000000000081526004016117fc90613925565b60405180910390fd5b6000611810836109c3565b90508073ffffffffffffffffffffffffffffffffffffffff168473ffffffffffffffffffffffffffffffffffffffff16148061187f57508373ffffffffffffffffffffffffffffffffffffffff16611867846106ae565b73ffffffffffffffffffffffffffffffffffffffff16145b80611890575061188f81856112f6565b5b91505092915050565b8273ffffffffffffffffffffffffffffffffffffffff166118b9826109c3565b73ffffffffffffffffffffffffffffffffffffffff161461190f576040517f08c379a0000000000000000000000000000000000000000000000000000000008152600401611906906139b7565b60405180910390fd5b600073ffffffffffffffffffffffffffffffffffffffff168273ffffffffffffffffffffffffffffffffffffffff16141561197f576040517f08c379a000000000000000000000000000000000000000000000000000000000815260040161197690613a49565b60405180910390fd5b61198a838383612110565b611995600082611702565b6001600360008573ffffffffffffffffffffffffffffffffffffffff1673ffffffffffffffffffffffffffffffffffffffff16815260200190815260200160002060008282546119e59190613868565b925050819055506001600360008473ffffffffffffffffffffffffffffffffffffffff1673ffffffffffffffffffffffffffffffffffffffff1681526020019081526020016000206000828254611a3c9190613188565b92505081905550816002600083815260200190815260200160002060006101000a81548173ffffffffffffffffffffffffffffffffffffffff021916908373ffffffffffffffffffffffffffffffffffffffff160217905550808273ffffffffffffffffffffffffffffffffffffffff168473ffffffffffffffffffffffffffffffffffffffff167fddf252ad1be2c89b69c2b068fc378daa952ba7f163c4a11628f55a4df523b3ef60405160405180910390a4505050565b60606000821415611b3d576040518060400160405280600181526020017f30000000000000000000000000000000000000000000000000000000000000008152509050611c79565b600082905060005b60008214611b6f578080611b58906137ee565b915050600a82611b689190613837565b9150611b45565b60008167ffffffffffffffff811115611b8b57611b8a612989565b5b6040519080825280601f01601f191660200182016040528015611bbd5781602001600182028036833780820191505090505b50905060008290505b60008614611c7157600181611bdb9190613868565b90506000600a8088611bed9190613837565b611bf79190613a69565b87611c029190613868565b6030611c0e9190613ad0565b905060008160f81b905080848481518110611c2c57611c2b612ce2565b5b60200101907effffffffffffffffffffffffffffffffffffffffffffffffffffffffffffff1916908160001a905350600a88611c689190613837565b97505050611bc6565b819450505050505b919050565b611c89848484611899565b611c9584848484612115565b611cd4576040517f08c379a0000000000000000000000000000000000000000000000000000000008152600401611ccb90613b79565b60405180910390fd5b50505050565b606060405180602001604052806000815250905090565b6060611cfc8261168e565b611d3b576040517f08c379a0000000000000000000000000000000000000000000000000000000008152600401611d3290613c0b565b60405180910390fd5b6000611d45611cda565b90506000815111611d655760405180602001604052806000815250611d90565b80611d6f846114fa565b604051602001611d809291906132dc565b6040516020818303038152906040525b915050919050565b611e2e81604051602401611dac9190612750565b6040516020818303038152906040527f41304fac000000000000000000000000000000000000000000000000000000007bffffffffffffffffffffffffffffffffffffffffffffffffffffffff19166020820180517bffffffffffffffffffffffffffffffffffffffffffffffffffffffff83818316178352505050506122ac565b50565b60606000825190506000811415611e5a5760405180602001604052806000815250915050611fc4565b60006003600283611e6b9190613188565b611e759190613837565b6004611e819190613a69565b90506000602082611e929190613188565b67ffffffffffffffff811115611eab57611eaa612989565b5b6040519080825280601f01601f191660200182016040528015611edd5781602001600182028036833780820191505090505b5090506000604051806060016040528060408152602001613edc604091399050600181016020830160005b86811015611f815760038101905062ffffff818a015116603f8160121c168401518060081b905060ff603f83600c1c1686015116810190508060081b905060ff603f8360061c1686015116810190508060081b905060ff603f831686015116810190508060e01b90508084526004840193505050611f08565b506003860660018114611f9b5760028114611fab57611fb6565b613d3d60f01b6002830352611fb6565b603d60f81b60018303525b508484525050819450505050505b919050565b611fe38282604051806020016040528060008152506122d5565b5050565b611ff08261168e565b61202f576040517f08c379a000000000000000000000000000000000000000000000000000000000815260040161202690613c9d565b60405180910390fd5b80600660008481526020019081526020016000209080519060200190612056929190612511565b505050565b6001816000016000828254019250508190555050565b61210b83838360405160240161208993929190613cbd565b6040516020818303038152906040527fe3849f79000000000000000000000000000000000000000000000000000000007bffffffffffffffffffffffffffffffffffffffffffffffffffffffff19166020820180517bffffffffffffffffffffffffffffffffffffffffffffffffffffffff83818316178352505050506122ac565b505050565b505050565b60006121368473ffffffffffffffffffffffffffffffffffffffff16612330565b1561229f578373ffffffffffffffffffffffffffffffffffffffff1663150b7a0261215f6116fa565b8786866040518563ffffffff1660e01b81526004016121819493929190613d50565b602060405180830381600087803b15801561219b57600080fd5b505af19250505080156121cc57506040513d601f19601f820116820180604052508101906121c99190613db1565b60015b61224f573d80600081146121fc576040519150601f19603f3d011682016040523d82523d6000602084013e612201565b606091505b50600081511415612247576040517f08c379a000000000000000000000000000000000000000000000000000000000815260040161223e90613b79565b60405180910390fd5b805181602001fd5b63150b7a0260e01b7bffffffffffffffffffffffffffffffffffffffffffffffffffffffff1916817bffffffffffffffffffffffffffffffffffffffffffffffffffffffff1916149150506122a4565b600190505b949350505050565b60008151905060006a636f6e736f6c652e6c6f679050602083016000808483855afa5050505050565b6122df8383612343565b6122ec6000848484612115565b61232b576040517f08c379a000000000000000000000000000000000000000000000000000000000815260040161232290613b79565b60405180910390fd5b505050565b600080823b905060008111915050919050565b600073ffffffffffffffffffffffffffffffffffffffff168273ffffffffffffffffffffffffffffffffffffffff1614156123b3576040517f08c379a00000000000000000000000000000000000000000000000000000000081526004016123aa90613e2a565b60405180910390fd5b6123bc8161168e565b156123fc576040517f08c379a00000000000000000000000000000000000000000000000000000000081526004016123f390613e96565b60405180910390fd5b61240860008383612110565b6001600360008473ffffffffffffffffffffffffffffffffffffffff1673ffffffffffffffffffffffffffffffffffffffff16815260200190815260200160002060008282546124589190613188565b92505081905550816002600083815260200190815260200160002060006101000a81548173ffffffffffffffffffffffffffffffffffffffff021916908373ffffffffffffffffffffffffffffffffffffffff160217905550808273ffffffffffffffffffffffffffffffffffffffff16600073ffffffffffffffffffffffffffffffffffffffff167fddf252ad1be2c89b69c2b068fc378daa952ba7f163c4a11628f55a4df523b3ef60405160405180910390a45050565b82805461251d90612ba6565b90600052602060002090601f01602090048101928261253f5760008555612586565b82601f1061255857805160ff1916838001178555612586565b82800160010185558215612586579182015b8281111561258557825182559160200191906001019061256a565b5b5090506125939190612597565b5090565b5b808211156125b0576000816000905550600101612598565b5090565b6000604051905090565b600080fd5b600080fd5b60007fffffffff0000000000000000000000000000000000000000000000000000000082169050919050565b6125fd816125c8565b811461260857600080fd5b50565b60008135905061261a816125f4565b92915050565b600060208284031215612636576126356125be565b5b60006126448482850161260b565b91505092915050565b60008115159050919050565b6126628161264d565b82525050565b600060208201905061267d6000830184612659565b92915050565b6000819050919050565b61269681612683565b82525050565b60006020820190506126b1600083018461268d565b92915050565b600081519050919050565b600082825260208201905092915050565b60005b838110156126f15780820151818401526020810190506126d6565b83811115612700576000848401525b50505050565b6000601f19601f8301169050919050565b6000612722826126b7565b61272c81856126c2565b935061273c8185602086016126d3565b61274581612706565b840191505092915050565b6000602082019050818103600083015261276a8184612717565b905092915050565b61277b81612683565b811461278657600080fd5b50565b60008135905061279881612772565b92915050565b6000602082840312156127b4576127b36125be565b5b60006127c284828501612789565b91505092915050565b600073ffffffffffffffffffffffffffffffffffffffff82169050919050565b60006127f6826127cb565b9050919050565b612806816127eb565b82525050565b600060208201905061282160008301846127fd565b92915050565b612830816127eb565b811461283b57600080fd5b50565b60008135905061284d81612827565b92915050565b6000806040838503121561286a576128696125be565b5b60006128788582860161283e565b925050602061288985828601612789565b9150509250929050565b6000806000606084860312156128ac576128ab6125be565b5b60006128ba8682870161283e565b93505060206128cb8682870161283e565b92505060406128dc86828701612789565b9150509250925092565b6000602082840312156128fc576128fb6125be565b5b600061290a8482850161283e565b91505092915050565b61291c8161264d565b811461292757600080fd5b50565b60008135905061293981612913565b92915050565b60008060408385031215612956576129556125be565b5b60006129648582860161283e565b92505060206129758582860161292a565b9150509250929050565b600080fd5b600080fd5b7f4e487b7100000000000000000000000000000000000000000000000000000000600052604160045260246000fd5b6129c182612706565b810181811067ffffffffffffffff821117156129e0576129df612989565b5b80604052505050565b60006129f36125b4565b90506129ff82826129b8565b919050565b600067ffffffffffffffff821115612a1f57612a1e612989565b5b612a2882612706565b9050602081019050919050565b82818337600083830152505050565b6000612a57612a5284612a04565b6129e9565b905082815260208101848484011115612a7357612a72612984565b5b612a7e848285612a35565b509392505050565b600082601f830112612a9b57612a9a61297f565b5b8135612aab848260208601612a44565b91505092915050565b60008060008060808587031215612ace57612acd6125be565b5b6000612adc8782880161283e565b9450506020612aed8782880161283e565b9350506040612afe87828801612789565b925050606085013567ffffffffffffffff811115612b1f57612b1e6125c3565b5b612b2b87828801612a86565b91505092959194509250565b60008060408385031215612b4e57612b4d6125be565b5b6000612b5c8582860161283e565b9250506020612b6d8582860161283e565b9150509250929050565b7f4e487b7100000000000000000000000000000000000000000000000000000000600052602260045260246000fd5b60006002820490506001821680612bbe57607f821691505b60208210811415612bd257612bd1612b77565b5b50919050565b600081905092915050565b7f46495253545f4e414d4500000000000000000000000000000000000000000000600082015250565b6000612c19600a83612bd8565b9150612c2482612be3565b600a82019050919050565b6000612c3a826126b7565b612c448185612bd8565b9350612c548185602086016126d3565b80840191505092915050565b6000612c6b82612c0c565b9150612c778284612c2f565b915081905092915050565b7f4e487b7100000000000000000000000000000000000000000000000000000000600052601260045260246000fd5b6000612cbc82612683565b9150612cc783612683565b925082612cd757612cd6612c82565b5b828206905092915050565b7f4e487b7100000000000000000000000000000000000000000000000000000000600052603260045260246000fd5b7f4552433732313a20617070726f76656420717565727920666f72206e6f6e657860008201527f697374656e7420746f6b656e0000000000000000000000000000000000000000602082015250565b6000612d6d602c836126c2565b9150612d7882612d11565b604082019050919050565b60006020820190508181036000830152612d9c81612d60565b9050919050565b7f4552433732313a20617070726f76616c20746f2063757272656e74206f776e6560008201527f7200000000000000000000000000000000000000000000000000000000000000602082015250565b6000612dff6021836126c2565b9150612e0a82612da3565b604082019050919050565b60006020820190508181036000830152612e2e81612df2565b9050919050565b7f4552433732313a20617070726f76652063616c6c6572206973206e6f74206f7760008201527f6e6572206e6f7220617070726f76656420666f7220616c6c0000000000000000602082015250565b6000612e916038836126c2565b9150612e9c82612e35565b604082019050919050565b60006020820190508181036000830152612ec081612e84565b9050919050565b7f4552433732313a207472616e736665722063616c6c6572206973206e6f74206f60008201527f776e6572206e6f7220617070726f766564000000000000000000000000000000602082015250565b6000612f236031836126c2565b9150612f2e82612ec7565b604082019050919050565b60006020820190508181036000830152612f5281612f16565b9050919050565b7f4c4153545f4e414d450000000000000000000000000000000000000000000000600082015250565b6000612f8f600983612bd8565b9150612f9a82612f59565b600982019050919050565b6000612fb082612f82565b9150612fbc8284612c2f565b915081905092915050565b7f4552433732313a206f776e657220717565727920666f72206e6f6e657869737460008201527f656e7420746f6b656e0000000000000000000000000000000000000000000000602082015250565b60006130236029836126c2565b915061302e82612fc7565b604082019050919050565b6000602082019050818103600083015261305281613016565b9050919050565b7f4552433732313a2062616c616e636520717565727920666f7220746865207a6560008201527f726f206164647265737300000000000000000000000000000000000000000000602082015250565b60006130b5602a836126c2565b91506130c082613059565b604082019050919050565b600060208201905081810360008301526130e4816130a8565b9050919050565b7f52414e444f4d5f46494c4c5f434f4c4f52000000000000000000000000000000600082015250565b6000613121601183612bd8565b915061312c826130eb565b601182019050919050565b600061314282613114565b915061314e8284612c2f565b915081905092915050565b7f4e487b7100000000000000000000000000000000000000000000000000000000600052601160045260246000fd5b600061319382612683565b915061319e83612683565b9250827fffffffffffffffffffffffffffffffffffffffffffffffffffffffffffffffff038211156131d3576131d2613159565b5b828201905092915050565b7f4552433732313a20617070726f766520746f2063616c6c657200000000000000600082015250565b60006132146019836126c2565b915061321f826131de565b602082019050919050565b6000602082019050818103600083015261324381613207565b9050919050565b7f45524337323155524953746f726167653a2055524920717565727920666f722060008201527f6e6f6e6578697374656e7420746f6b656e000000000000000000000000000000602082015250565b60006132a66031836126c2565b91506132b18261324a565b604082019050919050565b600060208201905081810360008301526132d581613299565b9050919050565b60006132e88285612c2f565b91506132f48284612c2f565b91508190509392505050565b7f4d617820416d6f756e74206f6620343230204e4654277320686173206265656e60008201527f2072656163686564000000000000000000000000000000000000000000000000602082015250565b600061335c6028836126c2565b915061336782613300565b604082019050919050565b6000602082019050818103600083015261338b8161334f565b9050919050565b600061339e8286612c2f565b91506133aa8285612c2f565b91506133b68284612c2f565b9150819050949350505050565b60008190508160005260206000209050919050565b600081546133e581612ba6565b6133ef8186612bd8565b9450600182166000811461340a576001811461341b5761344e565b60ff1983168652818601935061344e565b613424856133c3565b60005b8381101561344657815481890152600182019150602081019050613427565b838801955050505b50505092915050565b7f3c2f746578743e3c2f673e3c2f7376673e000000000000000000000000000000600082015250565b600061348d601183612bd8565b915061349882613457565b601182019050919050565b60006134af82896133d8565b91506134bb8288612c2f565b91506134c782876133d8565b91506134d38286612c2f565b91506134df82856133d8565b91506134eb8284612c2f565b91506134f682613480565b9150819050979650505050505050565b7f7b226e616d65223a202200000000000000000000000000000000000000000000600082015250565b600061353c600a83612bd8565b915061354782613506565b600a82019050919050565b7f222c20226465736372697074696f6e223a2022436861726163746572206e616d60008201527f652047656e65726174696f6e20222c2022696d616765223a2022646174613a6960208201527f6d6167652f7376672b786d6c3b6261736536342c000000000000000000000000604082015250565b60006135d4605483612bd8565b91506135df82613552565b605482019050919050565b7f227d000000000000000000000000000000000000000000000000000000000000600082015250565b6000613620600283612bd8565b915061362b826135ea565b600282019050919050565b60006136418261352f565b915061364d8285612c2f565b9150613658826135c7565b91506136648284612c2f565b915061366f82613613565b91508190509392505050565b7f646174613a6170706c69636174696f6e2f6a736f6e3b6261736536342c000000600082015250565b60006136b1601d83612bd8565b91506136bc8261367b565b601d82019050919050565b60006136d2826136a4565b91506136de8284612c2f565b915081905092915050565b60006040820190506136fe60008301856127fd565b61370b602083018461268d565b9392505050565b7f52414e444f4d5f4241434b47524f554e445f434f4c4f52000000000000000000600082015250565b6000613748601783612bd8565b915061375382613712565b601782019050919050565b60006137698261373b565b91506137758284612c2f565b915081905092915050565b7f434c415353000000000000000000000000000000000000000000000000000000600082015250565b60006137b6600583612bd8565b91506137c182613780565b600582019050919050565b60006137d7826137a9565b91506137e38284612c2f565b915081905092915050565b60006137f982612683565b91507fffffffffffffffffffffffffffffffffffffffffffffffffffffffffffffffff82141561382c5761382b613159565b5b600182019050919050565b600061384282612683565b915061384d83612683565b92508261385d5761385c612c82565b5b828204905092915050565b600061387382612683565b915061387e83612683565b92508282101561389157613890613159565b5b828203905092915050565b60006138a88284612c2f565b915081905092915050565b7f4552433732313a206f70657261746f7220717565727920666f72206e6f6e657860008201527f697374656e7420746f6b656e0000000000000000000000000000000000000000602082015250565b600061390f602c836126c2565b915061391a826138b3565b604082019050919050565b6000602082019050818103600083015261393e81613902565b9050919050565b7f4552433732313a207472616e73666572206f6620746f6b656e2074686174206960008201527f73206e6f74206f776e0000000000000000000000000000000000000000000000602082015250565b60006139a16029836126c2565b91506139ac82613945565b604082019050919050565b600060208201905081810360008301526139d081613994565b9050919050565b7f4552433732313a207472616e7366657220746f20746865207a65726f2061646460008201527f7265737300000000000000000000000000000000000000000000000000000000602082015250565b6000613a336024836126c2565b9150613a3e826139d7565b604082019050919050565b60006020820190508181036000830152613a6281613a26565b9050919050565b6000613a7482612683565b9150613a7f83612683565b9250817fffffffffffffffffffffffffffffffffffffffffffffffffffffffffffffffff0483118215151615613ab857613ab7613159565b5b828202905092915050565b600060ff82169050919050565b6000613adb82613ac3565b9150613ae683613ac3565b92508260ff03821115613afc57613afb613159565b5b828201905092915050565b7f4552433732313a207472616e7366657220746f206e6f6e20455243373231526560008201527f63656976657220696d706c656d656e7465720000000000000000000000000000602082015250565b6000613b636032836126c2565b9150613b6e82613b07565b604082019050919050565b60006020820190508181036000830152613b9281613b56565b9050919050565b7f4552433732314d657461646174613a2055524920717565727920666f72206e6f60008201527f6e6578697374656e7420746f6b656e0000000000000000000000000000000000602082015250565b6000613bf5602f836126c2565b9150613c0082613b99565b604082019050919050565b60006020820190508181036000830152613c2481613be8565b9050919050565b7f45524337323155524953746f726167653a2055524920736574206f66206e6f6e60008201527f6578697374656e7420746f6b656e000000000000000000000000000000000000602082015250565b6000613c87602e836126c2565b9150613c9282613c2b565b604082019050919050565b60006020820190508181036000830152613cb681613c7a565b9050919050565b60006060820190508181036000830152613cd78186612717565b9050613ce6602083018561268d565b613cf360408301846127fd565b949350505050565b600081519050919050565b600082825260208201905092915050565b6000613d2282613cfb565b613d2c8185613d06565b9350613d3c8185602086016126d3565b613d4581612706565b840191505092915050565b6000608082019050613d6560008301876127fd565b613d7260208301866127fd565b613d7f604083018561268d565b8181036060830152613d918184613d17565b905095945050505050565b600081519050613dab816125f4565b92915050565b600060208284031215613dc757613dc66125be565b5b6000613dd584828501613d9c565b91505092915050565b7f4552433732313a206d696e7420746f20746865207a65726f2061646472657373600082015250565b6000613e146020836126c2565b9150613e1f82613dde565b602082019050919050565b60006020820190508181036000830152613e4381613e07565b9050919050565b7f4552433732313a20746f6b656e20616c7265616479206d696e74656400000000600082015250565b6000613e80601c836126c2565b9150613e8b82613e4a565b602082019050919050565b60006020820190508181036000830152613eaf81613e73565b905091905056fe416e204e465420772f20494420257320686173206265656e206d696e74656420746f2025734142434445464748494a4b4c4d4e4f505152535455565758595a6162636465666768696a6b6c6d6e6f707172737475767778797a303132333435363738392b2fa2646970667358221220d58af30c07eefcfe99207eca277e4beae4c3f911a2876b053531a3870a5e79b964736f6c634300080900333c7376672069643d2776697375616c272076696577426f783d273020302039303020363030272077696474683d2739303027206865696768743d273630302720786d6c6e733d27687474703a2f2f7777772e77332e6f72672f323030302f7376672720786d6c6e733a786c696e6b3d27687474703a2f2f7777772e77332e6f72672f313939392f786c696e6b272076657273696f6e3d27312e31273e3c7265637420783d27302720793d2730272077696474683d2739303027206865696768743d27363030272066696c6c3d2723273e3c636972636c6520723d27313437272063783d27353335272063793d27353432273e3c2f636972636c653e3c636972636c6520723d273833272063783d27353530272063793d27313230273e3c2f636972636c653e3c636972636c6520723d273832272063783d27313230272063793d27313131273e3c2f636972636c653e3c636972636c6520723d273835272063783d27383936272063793d27343238273e3c2f636972636c653e3c636972636c6520723d27313432272063783d273734272063793d27353237273e3c2f636972636c653e3c636972636c6520723d273937272063783d27383533272063793d273536273e3c2f636972636c653e3c7465787420783d273430252720793d273530252720636c6173733d27626173652720646f6d696e616e742d626173656c696e653d276d6964646c652720746578742d616e63686f723d276d6964646c652720666f6e742d73697a653d2733656d273e",
  "linkReferences": {},
  "deployedLinkReferences": {}
}